:020000040000FA
:030000000200E318
:03001300020703DE
:0300330002066E54
:03006B0002054447
:03007B000205D9A2
:1000830002050300000080FB12013FB900030200D8
:10009300CDE4900101780D79038002F0A3D8FCD957
:1000A300FA90030DAA82AB83900142781479018000
:1000B30015E493A3AC82AD838A828B83F0A3AA82D7
:1000C300AB838C828D83D8E9D9E77582E975830F79
:1000D30074001200F575828675830074001200F5B2
:1000E30075D0007581BF751001751101759F0002F0
:1000F300008BC0F0F5F0E59F5407C0E0E59F54F88E
:1001030045F0D0F0F59FE473859FF053F0F8D0E00D
:1001130045F0F59F22D083D082E59F5407C0E0E4E9
:1001230093C0E0740193C0E07402935407C0F0F5E8
:10013300F0E59F54F845F0D0F0F59F22790122FFB6
:100143000000000000000000000000490100000062
:1001530000001201187F0700120118350800120170
:1001630018B10800120118EC0900120118790A00ED
:100173001201180B0B001201181B0B001201189C23
:100183000B00120118B30B00120118C70B00120168
:1001930018DB0B00120118E00B00120118E50B002D
:1001A3001201181B0C00120118460C001201186EE4
:1001B3000C00120118A10C00120118CE0C00120140
:1001C30018FA0C001201180A0D00120118200D0074
:1001D300120118370D001201184E0D001201187A82
:1001E3000D001201189E0D00120118AF0D0012012F
:1001F30018B80D00120118C10D00120118D60D0018
:10020300120118EB0D001201180B0E001201181E3B
:100213000E00120118210E00120118360E001201F1
:10022300184B0E00120118910E00120118B00E00A7
:10023300120118C60E00120118E50E00120118066D
:100243000F00120118460F001201186E0F00120161
:10025300189D0F00120118D90F00120118DA1100AE
:100263001201181412001201183F12001201184B48
:100273001200E0F608A3E0F608A3E0F608A3E0F610
:1002830022E6F008A3E6F008A3E6F008A3E6F022CE
:10029300CAC0E0E6F0A308DAFAD0E0FA227004223A
:1002A300600D18C6C333C608C633C6D5E0F418229A
:1002B300251010AF08F510400215118008F5104005
:1002C300021511D2AF22C0D0251010AF08F510507F
:1002D3000205118008F51050020511D2AFD0D022CB
:1002E3002510F58210AF08F510400215118008F5AE
:1002F3001040021511D2AF851183222510F582E437
:100303003511F58322E4732510C582C0E0E511346D
:10031300FFC583C0E0E510C3958224F8F8E4C5A8BF
:10032300858311858210C5A8E8CEF0A3E520F0A34C
:100333007808E608F0A3DEFAEFF0A3E58124FAF8E3
:10034300E608F0A3E608F0A3E608F0A30808E60829
:10035300F0A3E608F0A315811581D0E0FED0E0F804
:10036300158115811581E8C0E0EEC0E02285118377
:10037300851082E0A3FEE0A3F5207808E0A3F60849
:10038300DFFAE0A3FFE0A3C0E0E0A3C0E0E0A3C086
:10039300E0E0A3C0E0E0A3C0E0E4C5A88582108547
:1003A3008311C5A8D083D08202010BC0D02510C50C
:1003B30082C0E0E51134FFC583C0E0E510C3958238
:1003C30024F310AF0885831185821080088583117B
:1003D300858210D2AFC8F0A3E9F0A3EAF0A3EBF053
:1003E300A37908E709F0A3D8FAECF0A3EDF0A3EEA4
:1003F300F0A3EFF0A3D0E0F0A3D0E0F0A3D0E0F0BF
:10040300A3E520F0A3E5F0F0A322851183851082F4
:10041300E0C0E0A3E0F9A3E0FAA3E0FBA37808E0DF
:10042300F608A3DFFAE0FCA3E0FDA3E0FEA3E0FFF0
:10043300A3E0C0E0A3E0C0E0A3E0F5D0A3E0F52093
:10044300A3E0A3F5F0E4C5A8858311858210C5A8B0
:10045300D082D083D0E0F8D0E03274028000C0E0D4
:10046300F4041202E3D0E012029322D083D082C5B7
:10047300F0E493A3C5F0C395F0F5F0E493A3C3951B
:10048300F04005E5F0048001E475F002A42582F54F
:1004930082E5F03583F583E493A3C0E0E493C0E001
:1004A30022D083D082CCC0E0E493A360061204CEB2
:1004B3001470FAE493A360061204ED1470FAD0E00A
:1004C300FCE493A3C0E0E493C0E022C0E0E493A380
:1004D300D39C5010E493A3C39C400AD0E0D0E0D057
:1004E300E00204C1A3A3A3D0E022C0E0E493A36C81
:1004F3007009D0E0D0E0D0E00204C1A3A3D0E02291
:10050300C0E074F21203AEA2AFE492E0FEC2AFE524
:10051300E9A2E650229001FDE064007004A3E064C8
:1005230000600E9001FDE0F8A3E0F58388821203DA
:1005330008759B0053E9BFEEA2E092AF7F0102046E
:100543000DC0E074F11203AEC2C5E5897003020564
:10055300D47E00EEC394085078750801750900EE47
:1005630078081202A0AF08E5895F6062EEF87900AF
:10057300E875F002A4C8AAF075F000A42AFA75F091
:1005830002E9A42AF9E824FFF582E93401F583E0BE
:1005930064007004A3E06400602EEEF87900E8754F
:1005A300F002A4C8AAF075F000A42AFA75F002E9D3
:1005B300A42AF9E824FFF582E93401F583E0F8A3DE
:1005C300E0F5838882120308EFF45589F5890E80DC
:1005D300827F0202040DC0E074F11203AEC2EBE5A8
:1005E3008A70030206697E00EEC39408507875088A
:1005F30001750900EE78081202A0AF08E58A5F6072
:1006030062EEF87900E875F002A4C8AAF075F0006C
:10061300A42AFA75F002E9A42AF9E8240FF582E97D
:100623003402F583E064007004A3E06400602EEEFE
:10063300F87900E875F002A4C8AAF075F000A42ABE
:10064300FA75F002E9A42AF9E8240FF582E93402E5
:10065300F583E0F8A3E0F5838882120308EFF455ED
:100663008AF58A0E80827F0202040DC0E074F112C3
:1006730003AEC2E8E58B70030206FE7E00EEC39470
:10068300055078750801750900EE78081202A0AFCD
:1006930008E58B5F6062EEF87900E875F002A4C8A4
:1006A300AAF075F000A42AFA75F002E9A42AF9E881
:1006B300241FF582E93402F583E064007004A3E0AB
:1006C3006400602EEEF87900E875F002A4C8AAF081
:1006D30075F000A42AFA75F002E9A42AF9E8241FA8
:1006E300F582E93402F583E0F8A3E0F5838882120A
:1006F3000308EFF4558BF58B0E80827F0202040D05
:10070300C0E0C0D0E8C0E0EAC0E0C008C009C082D1
:10071300C083C2AFC28BAAC18A8275830085820857
:10072300858309E5097040E5081204A400034848DD
:1007330007505A07613C076A079003027401F0A34C
:100743007400F08022E50890022AF09003067401F9
:10075300F0A37400F08010E50890022AF0900304DF
:100763007401F0A37400F0D2AFD083D082D009D04B
:1007730008D0E0FAD0E0F8D0D0D0E03274F412031D
:100783000AEAFEEBFF89088E0A8F0B740B25088596
:100793000A82850B83F0900108E0F8A3E0F58388D3
:1007A30082A3A3A3A3A3E060067A617B8880047A73
:1007B300417B88EA850A82850B83A3F0EBF9E985FF
:1007C3000A82850B83A3A3F0900101E0850A828549
:1007D3000B83A3A3A3F0900108E0F8A3E0F58388BB
:1007E30082A3A3E0F8A3E0F9850A82850B83A3A380
:1007F300A3A3E8F0A3E9F0850A82850B83A3A3A34F
:10080300A3A3A3ECF0A3EDF0900108E0F8A3E0F5B7
:10081300838882E0F8A3E0F9850A82850B83A3A38A
:10082300A3A3A3A3A3A3E8F0A3E9F0790A7F040297
:10083300037074F012030A74FE1202B385108285EA
:100843001183ECF0A3EDF08A0E8B0FE9FFEFF9AC07
:100853000EAD0F7A0A7B01120155E9F50C7E00EE0D
:10086300C39F503CEEF87900851082851183E02800
:10087300FAA3E0398A82F583E0C0E0850C0A750BA0
:10088300008E08750900E508250AF8E509350BF916
:10089300E8240AF582E93401F583D0E0F00E80BF45
:1008A300EF250CF974021202C97F0802037074F673
:1008B30012030A7E7D7F011201F71201917901EE85
:1008C300FAEFFB1201DF8E828F83E0C2E7F08E82A4
:1008D3008F83E0640570578E828F83E0F97A7E7B85
:1008E300011201DF8E828F83A3E0A2E55004D2F0D0
:1008F3008002C2F0A2F0E492E0900315F075088143
:10090300750901850882850983A3E0A2E7400302F4
:1009130009E18E828F83A3A3A3E0FA900101E06A29
:1009230060030209E17401900102F00209E18E8281
:100933008F83E024F5900312F08E828F83E0F97A9F
:100943007E7B011201DF8E828F83A3E0A2E5500438
:10095300D2F08002C2F0A2F0E492E0900315F08E90
:10096300828F83A3A3A3A3A3A3A3A3E0F8A3E0F984
:1009730090030EE8F0A3E9F09003137487F0A374D7
:1009830001F0900312E0F83395E0F9900313E028A7
:10099300F8A3E039F988088909850882850983E085
:1009A300900316F0850882850983A3E0A2E750220D
:1009B30090030DE0FA8E828F83A3A3A3E06A6012F3
:1009C3008E828F83A3E054DF644170067401900329
:1009D30017F08E828F83A3A3A3E090030DF012017F
:1009E300971201FD7F0202037074F412030AEAFEF8
:1009F300EBFF1201BBE964017004790180731201FA
:100A030097900108EEF0A3EFF09003137400F0A3A6
:100A13007400F07401900103F090031C7808120233
:100A2300759001047808120284900108E0F8A3E0AD
:100A3300F5838882A3A3A3A3E0F91201C790010859
:100A4300E0F8A3E0F5838882E0FAA3E0FB1201CD8E
:100A5300900108E0F8A3E0F5838882A3A3E0FAA35A
:100A6300E0FB1201D37A617B011202031201917937
:100A7300007F0402037074F212030A8A0C8B0D8C3C
:100A83000A8D0BE9FF900103E070031201EB7A6713
:100A9300EFF9120257E9FF1202091201F7EFF9AC5D
:100AA3000AAD0BAA0CAB0D12015BE9F508A9087A94
:100AB3000A7B011201D91201FD1201E5E990010837
:100AC300E0F8A3E0F5838882A3A3A3A3A3E0601CBB
:100AD3007400900102F07A4A7B021201AF90010286
:100AE300E06004740080027401FE80027E009001C5
:100AF30003E070031201F1EE7007900101E024019D
:100B0300F0EEF97F06020370C082C083900317E002
:100B1300F9D083D08202010B74F212030A8A0C8B80
:100B23000D890AECFEEDFF120197AA0A900312E069
:100B3300F9120257E9F508750900780812045D9067
:100B43000313E0FCA3E0FDAA0CAB0D12026F7402C9
:100B53001202C9EE64007003EF6400602490031670
:100B6300E0F5083395E0F5091201C1E9F87900E5EC
:100B730008C398F8E50999F98E828F83E8F0A3E911
:100B8300F07400900317F0120191AA0A900312E087
:100B9300F91202577F06020370C082C0831201C19B
:100BA300E9FA900316E0C39AF9D083D08202010BCD
:100BB300C082C0837401900103F01201EBD083D093
:100BC3008202010BC082C0837400900103F0120102
:100BD300F1D083D08202010BD2AF02010BC2AF026C
:100BE300010B748055C6FA53BEFBE59DA2E550FA8E
:100BF300E59DA2E240F400740169700774494AF567
:100C0300C68005E970028AC6E5C6FBE59EFCEB6C6F
:100C130070F943BE0402010BE9FAE59EA2E6400423
:100C23007901801CEA700553C67F800874016A70DD
:100C33000343C680E5C6FBE59EFCEB6C70F97900C7
:100C430002010BC082C08379001201A3E96010790D
:100C53000112019D79001201A3E96003120239799F
:100C63000012019DD083D08202010BEBC313FBEA78
:100C730013FAEAF8EBF974FF28FA74FF39FB7400EE
:100C83006870037400696013000000000000000036
:100C930000000000000000000080D702010B74F781
:100CA30012030AEAFEEBFFEEF8EFF974FF28FE7475
:100CB300FF39FF740068700374006960097AE87B88
:100CC300031201AF80E17F01020370C082C08390F1
:100CD3006189E04460F074099061FAF074159061E1
:100CE300B2F074009061AEF012020F1201FD7900B0
:100CF300D083D08202010BC082C083900319E0F934
:100D0300D083D08202010BC082C08375F005E9A4B1
:100D130024D490618FF0D083D08202010BC082C0B3
:100D230083EA906174F0EBF9E9906175F0D083D0B8
:100D33008202010BC082C083EA906172F0EBF9E991
:100D4300906173F0D083D08202010B74F612030A10
:100D530075E1EE7591FD7C00ECC39950158C087517
:100D63000900EA2508F582EB3509F583E0F5D90C8E
:100D730080E67F02020370C082C083E9C39401400E
:100D830013E5D98A828B83F08A828B83A3AA82ABF1
:100D9300831980E7D083D08202010B75E1E9E591E5
:100DA300A2E150FA7591FD790002010B75E1EC7532
:100DB300E1E302010B75E1EF75E1EC02010BC08287
:100DC300C0839061A3E0C2E6F0539AFED083D08241
:100DD30002010BC082C0839061A3E0D2E6F0439A84
:100DE30001D083D08202010BC082C083A2AFE49200
:100DF300E0FCC2AF9001FDEAF0A3EBF0ECA2E092BD
:100E0300AFD083D08202010BC082C083906193E094
:100E1300542270F8D083D08202010B02010BC292DC
:100E2300C280C2F989F9A2F950FC00000000D292F5
:100E330002010BC292D280C2F989F9A2F950FC00D7
:100E4300000000D29202010BC082C08353F4FBD294
:100E53009243FE0453F3FED28043FD01791512023F
:100E630015790F12022D790E12021579251202152A
:100E7300791C1202157A157B001201B51202271292
:100E830002337929120215D083D08202010B74F741
:100E930012030A79801202157E00EEC394305008C3
:100EA300792012021B0E80F27F0102037074F71285
:100EB300030AE9FE7950120215EEF912021B7F01B3
:100EC30002037074F712030A79C01202157E00EE52
:100ED300C394405008790012021B0E80F27F010276
:100EE3000370C082C0837901120251790212025148
:100EF300790312025179041202517A327B001201F2
:100F0300B580E3C082C0831201A943FE01C29043AE
:100F1300FE02C29143FE10C29443FD02C28153F309
:100F2300FD53FDFD438F0253F5FE53FFFE43F701CF
:100F330043F340120245120221120191D083D08261
:100F430002010B43F10243F48043F44043F420E5F0
:100F53009EA2E0E492E0240FFA7B5375FB8075F8C0
:100F63000074204AF5FC8BFA02010BC082C083E9AE
:100F730012046E0103960F820F860F8A0F8E0FD213
:100F8300908010D291800CD2948008D28174019009
:100F93000229F0D083D08202010BC082C083E91200
:100FA300046E0103D20FB10FB80FBF0FC60F6390CA
:100FB30001E590801A639002E5908013639010E539
:100FC30090800C638002E580900229E06401F0D0F8
:100FD30083D08202010BE9FBEBC39A5004EBF98047
:100FE30002EAF902010B12023F12025D1201BBE990
:100FF30064017003120239790112024B7A5E7B019C
:101003001201B512026312026990031AE0640070C0
:1010130004A3E0640070030210D2900302E06400B2
:101023007004A3E0640060F29003027400F0A37400
:1010330000F0740190022AF012018B79697C2A7DF9
:10104300027A207B2512016DE9700A90030874016E
:10105300F0A37400F0120185740290022AF01201C9
:101063008B79697C2A7D027A207B2512016DE970D8
:1010730051120185120173E960FA7C007D007969E0
:101083007A937B02120179E9C3940140359002936C
:10109300E06443702D78007900C3E89469E9940013
:1010A30050205386FDE82493F582E93402F583E06A
:1010B300F5C1E586A2E150FAE82401F8E93400F924
:1010C30080D712018590031A7400F0A37400F09086
:1010D3000306E064007004A3E06400601A79697C8D
:1010E3002A7D027A207B2512016DE9700A9003069E
:1010F3007400F0A37400F0900304E064007004A390
:10110300E06400606479697C2A7D027A207B251281
:10111300016DE9705490031A7401F0A37400F09008
:1011230003047400F0A37400F078007900C3E8941A
:1011330069E994005033900293E064527004D2F052
:101143008002C2F0A2F0E492E05386FDE82493F516
:1011530082E93402F583E0F5C1E586A2E150FAE8BD
:101163002401F8E93400F980C4120173E970030221
:10117300100C90030AE0FCA3E0FD79697A937B02EB
:10118300120179E9C39401500302100C12017FE9A3
:1011930090030CF090030CE09002FBF0900293E0BC
:1011A3006444600302100C78007900C3E89469E991
:1011B3009400400302100C5386FDE82493F582E962
:1011C3003402F583E0F5C1E586A2E150FAE8240193
:1011D300F8E93400F980D4C082C0839002FE74071A
:1011E300F0A37420F07419900300F07401900301CC
:1011F300F09002FC74EFF0A374BEF07AFC7B021251
:101203000167E964017003120239D083D0820201BD
:101213000B53F1FE43F30CE5F343FD0853FDFB438E
:10122300868043C406E5C453C4A6E5C475C2D84347
:10123300C509E5C553C5E9E5C502010BC28B438664
:1012430040D2AAD2AF02010B74F612030A740A1237
:1012530002FEE0FEA3E0FFEAF8EBF980188C828D32
:1012630083E088828983F0A3A882A9838C828D83FB
:10127300A3AC82AD838E088F0974FF25081E74FF0B
:101283003509FFE5087002E50970D27F0202037099
:04000005000000E314
:00000001FF
