:020000040000FA
:030000000200E318
:03001300020701E0
:0300330002066C56
:03006B0002054249
:03007B000205D7A4
:1000830002050100000080FB12013FB900030200DA
:10009300CDE4900101780B79038002F0A3D8FCD959
:1000A300FA90030BAA82AB83900142781279018004
:1000B30015E493A3AC82AD838A828B83F0A3AA82D7
:1000C300AB838C828D83D8E9D9E77582D275830F90
:1000D30074001200F575828675830074001200F5B2
:1000E30075D0007581BF751001751101759F0002F0
:1000F300008BC0F0F5F0E59F5407C0E0E59F54F88E
:1001030045F0D0F0F59FE473859FF053F0F8D0E00D
:1001130045F0F59F22D083D082E59F5407C0E0E4E9
:1001230093C0E0740193C0E07402935407C0F0F5E8
:10013300F0E59F54F845F0D0F0F59F22790122FFB6
:100143000000000000000000000000490000000063
:100153001201186807001201181E08001201189AEC
:100163000800120118D50900120118620A001201D1
:1001730018F40A00120118040B00120118850B0071
:100183001201189C0B00120118B00B00120118C4C5
:100193000B00120118C90B00120118CE0B0012013B
:1001A30018040C001201182F0C00120118570C0030
:1001B3001201188A0C00120118B70C00120118E37F
:1001C3000C00120118F30C00120118090D001201A2
:1001D30018200D00120118370D00120118630D00CD
:1001E300120118870D00120118980D00120118A1B1
:1001F3000D00120118AA0D00120118BF0D00120103
:1002030018D40D00120118F40D00120118070E0086
:100213001201180A0E001201181F0E0012011834E1
:100223000E001201187A0E00120118990E00120125
:1002330018AF0E00120118CE0E00120118EF0E00B7
:100243001201182F0F00120118570F001201188600
:100253000F00120118C20F00120118201100120121
:10026300185A11001201188511001201189111007A
:10027300E0F608A3E0F608A3E0F608A3E0F622E61A
:10028300F008A3E6F008A3E6F008A3E6F022CAC04C
:10029300E0E6F0A308DAFAD0E0FA22700422600D57
:1002A30018C6C333C608C633C6D5E0F418222510D2
:1002B30010AF08F510400215118008F51040021523
:1002C30011D2AF22C0D0251010AF08F5105002058F
:1002D300118008F51050020511D2AFD0D02225109D
:1002E300F58210AF08F510400215118008F5104093
:1002F300021511D2AF851183222510F582E4351141
:10030300F58322E4732510C582C0E0E51134FFC5EF
:1003130083C0E0E510C3958224F8F8E4C5A885837B
:1003230011858210C5A8E8CEF0A3E520F0A37808D4
:10033300E608F0A3DEFAEFF0A3E58124FAF8E60875
:10034300F0A3E608F0A3E608F0A30808E608F0A384
:10035300E608F0A315811581D0E0FED0E0F8158101
:1003630015811581E8C0E0EEC0E022851183851078
:1003730082E0A3FEE0A3F5207808E0A3F608DFFA05
:10038300E0A3FFE0A3C0E0E0A3C0E0E0A3C0E0E09F
:10039300A3C0E0E0A3C0E0E4C5A885821085831173
:1003A300C5A8D083D08202010BC0D02510C582C05E
:1003B300E0E51134FFC583C0E0E510C3958224F363
:1003C30010AF08858311858210800885831185828B
:1003D30010D2AFC8F0A3E9F0A3EAF0A3EBF0A3793E
:1003E30008E709F0A3D8FAECF0A3EDF0A3EEF0A32D
:1003F300EFF0A3D0E0F0A3D0E0F0A3D0E0F0A3E5CA
:1004030020F0A3E5F0F0A322851183851082E0C0DC
:10041300E0A3E0F9A3E0FAA3E0FBA37808E0F60881
:10042300A3DFFAE0FCA3E0FDA3E0FEA3E0FFA3E06B
:10043300C0E0A3E0C0E0A3E0F5D0A3E0F520A3E093
:10044300A3F5F0E4C5A8858311858210C5A8D082E1
:10045300D083D0E0F8D0E03274028000C0E0F4042E
:100463001202E1D0E012029122D083D082C5F0E4DF
:1004730093A3C5F0C395F0F5F0E493A3C395F040BF
:1004830005E5F0048001E475F002A42582F582E518
:10049300F03583F583E493A3C0E0E493C0E022D076
:1004A30083D082CCC0E0E493A360061204CC147022
:1004B300FAE493A360061204EB1470FAD0E0FCE4B0
:1004C30093A3C0E0E493C0E022C0E0E493A3D39CF1
:1004D3005010E493A3C39C400AD0E0D0E0D0E002E4
:1004E30004BFA3A3A3D0E022C0E0E493A36C7009EC
:1004F300D0E0D0E0D0E00204BFA3A3D0E022C0E06C
:1005030074F21203ACA2AFE492E0FEC2AFE5E9A23B
:10051300E650229001FDE064007004A3E0640060F3
:100523000E9001FDE0F8A3E0F583888212030675BF
:100533009B0053E9BFEEA2E092AF7F0102040BC020
:10054300E074F11203ACC2C5E58970030205D27EE3
:1005530000EEC394085078750801750900EE780819
:1005630012029EAF08E5895F6062EEF87900E875D4
:10057300F002A4C8AAF075F000A42AFA75F002E903
:10058300A42AF9E824FFF582E93401F583E0640045
:100593007004A3E06400602EEEF87900E875F002C1
:1005A300A4C8AAF075F000A42AFA75F002E9A42AF7
:1005B300F9E824FFF582E93401F583E0F8A3E0F5D7
:1005C300838882120306EFF45589F5890E80827FB2
:1005D3000202040BC0E074F11203ACC2EBE58A70B3
:1005E300030206677E00EEC3940850787508017510
:1005F3000900EE780812029EAF08E58A5F6062EE9A
:10060300F87900E875F002A4C8AAF075F000A42AEE
:10061300FA75F002E9A42AF9E8240FF582E9340215
:10062300F583E064007004A3E06400602EEEF879C3
:1006330000E875F002A4C8AAF075F000A42AFA75C0
:10064300F002E9A42AF9E8240FF582E93402F583DC
:10065300E0F8A3E0F5838882120306EFF4558AF5E8
:100663008A0E80827F0202040BC0E074F11203AC95
:10067300C2E8E58B70030206FC7E00EEC3940550CE
:1006830078750801750900EE780812029EAF08E537
:100693008B5F6062EEF87900E875F002A4C8AAF0F7
:1006A30075F000A42AFA75F002E9A42AF9E8241FD8
:1006B300F582E93402F583E064007004A3E064008A
:1006C300602EEEF87900E875F002A4C8AAF075F080
:1006D30000A42AFA75F002E9A42AF9E8241FF58296
:1006E300E93402F583E0F8A3E0F583888212030678
:1006F300EFF4558BF58B0E80827F0202040BC0E072
:10070300C0D0E8C0E0EAC0E0C008C009C082C0832E
:10071300C2AFC28BAAC18A82758300858208858392
:1007230009E509702BE5081204A20002484307619A
:10073300370753079003027401F0A37400F080108D
:10074300E50890022AF09003047401F0A37400F00A
:10075300D2AFD083D082D009D008D0E0FAD0E0F86D
:10076300D0D0D0E03274F4120308EAFEEBFF89081C
:100773008E0A8F0B740B2508850A82850B83F090F4
:100783000108E0F8A3E0F5838882A3A3A3A3A3E071
:1007930060067A617B8880047A417B88EA850A82D5
:1007A300850B83A3F0EBF9E9850A82850B83A3A369
:1007B300F0900101E0850A82850B83A3A3A3F09047
:1007C3000108E0F8A3E0F5838882A3A3E0F8A3E09F
:1007D300F9850A82850B83A3A3A3A3E8F0A3E9F019
:1007E300850A82850B83A3A3A3A3A3A3ECF0A3EDA4
:1007F300F0900108E0F8A3E0F5838882E0F8A3E035
:10080300F9850A82850B83A3A3A3A3A3A3A3A3E8C8
:10081300F0A3E9F0790A7F0402036E74F01203086F
:1008230074FE1202B1851082851183ECF0A3EDF002
:100833008A0E8B0FE9FFEFF9AC0EAD0F7A0A7B013D
:10084300120153E9F50C7E00EEC39F503CEEF8799C
:1008530000851082851183E028FAA3E0398A82F5A6
:1008630083E0C0E0850C0A750B008E08750900E56E
:1008730008250AF8E509350BF9E8240AF582E93475
:1008830001F583D0E0F00E80BFEF250CF97402125E
:1008930002C77F0802036E74F61203087E7D7F0190
:1008A3001201F512018F7901EEFAEFFB1201DD8ED1
:1008B300828F83E0C2E7F08E828F83E064057057F6
:1008C3008E828F83E0F97A7E7B011201DD8E828F27
:1008D30083A3E0A2E55004D2F08002C2F0A2F0E4C8
:1008E30092E0900313F075088175090185088285EC
:1008F3000983A3E0A2E740030209CA8E828F83A380
:10090300A3A3E0FA900101E06A60030209CA74013B
:10091300900102F00209CA8E828F83E024F59003CE
:1009230010F08E828F83E0F97A7E7B011201DD8ED7
:10093300828F83A3E0A2E55004D2F08002C2F0A22A
:10094300F0E492E0900313F08E828F83A3A3A3A31A
:10095300A3A3A3A3E0F8A3E0F990030CE8F0A3E9B1
:10096300F09003117487F0A37401F0900310E0F882
:100973003395E0F9900311E028F8A3E039F98808EA
:100983008909850882850983E0900314F08508822C
:10099300850983A3E0A2E7502290030BE0FA8E823D
:1009A3008F83A3A3A3E06A60128E828F83A3E05494
:1009B300DF644170067401900315F08E828F83A368
:1009C300A3A3E090030BF01201951201FB7F020237
:1009D300036E74F4120308EAFEEBFF1201B9E96433
:1009E30001700479018073120195900108EEF0A360
:1009F300EFF09003117400F0A37400F07401900100
:100A030003F0900318780812027390010478081217
:100A13000282900108E0F8A3E0F5838882A3A3A3F0
:100A2300A3E0F91201C5900108E0F8A3E0F583887B
:100A330082E0FAA3E0FB1201CB900108E0F8A3E007
:100A4300F5838882A3A3E0FAA3E0FB1201D17A5FC6
:100A53007B0112020112018F79007F0402036E747D
:100A6300F21203088A0C8B0D8C0A8D0BE9FF90019F
:100A730003E070031201E97A67EFF9120255E9FF07
:100A83001202071201F5EFF9AC0AAD0BAA0CAB0D7C
:100A9300120159E9F508A9087A0A7B011201D71254
:100AA30001FB1201E3E9900108E0F8A3E0F5838874
:100AB30082A3A3A3A3A3E0601C7400900102F07AB5
:100AC3004A7B021201AD900102E0600474008002CF
:100AD3007401FE80027E00900103E070031201EFB7
:100AE300EE7007900101E02401F0EEF97F060203A6
:100AF3006EC082C083900315E0F9D083D0820201D7
:100B03000B74F21203088A0C8B0D890AECFEEDFFBD
:100B1300120195AA0A900310E0F9120255E9F508AB
:100B2300750900780812045B900311E0FCA3E0FD53
:100B3300AA0CAB0D12026D74021202C7EE640070B0
:100B430003EF64006024900314E0F5083395E0F5A7
:100B5300091201BFE9F87900E508C398F8E5099996
:100B6300F98E828F83E8F0A3E9F07400900315F007
:100B730012018FAA0A900310E0F91202557F0602B0
:100B8300036EC082C0831201BFE9FA900314E0C36D
:100B93009AF9D083D08202010BC082C08374019082
:100BA3000103F01201E9D083D08202010BC082C09D
:100BB300837400900103F01201EFD083D08202010D
:100BC3000BD2AF02010BC2AF02010B748055C6FA00
:100BD30053BEFBE59DA2E550FAE59DA2E240F40079
:100BE300740169700774494AF5C68005E970028A81
:100BF300C6E5C6FBE59EFCEB6C70F943BE0402013F
:100C03000BE9FAE59EA2E640047901801CEA70052F
:100C130053C67F800874016A700343C680E5C6FB30
:100C2300E59EFCEB6C70F9790002010BC082C08376
:100C330079001201A1E96010790112019B79001278
:100C430001A1E96003120237790012019BD083D01E
:100C53008202010BEBC313FBEA13FAEAF8EBF97414
:100C6300FF28FA74FF39FB7400687003740069602D
:100C7300130000000000000000000000000000005E
:100C8300000080D702010B74F7120308EAFEEBFFA2
:100C9300EEF8EFF974FF28FE74FF39FF74006870F3
:100CA3000374006960097AE87B031201AD80E17F78
:100CB3000102036EC082C083906189E04460F074D6
:100CC300099061FAF074159061B2F074009061AE0E
:100CD300F012020D1201FB7900D083D08202010BC6
:100CE300C082C083900317E0F9D083D08202010B46
:100CF300C082C08375F005E9A424D490618FF0D03D
:100D030083D08202010BC082C083EA906174F0EB4E
:100D1300F9E9906175F0D083D08202010BC082C0E3
:100D230083EA906172F0EBF9E9906173F0D083D0BC
:100D33008202010B74F612030875E1EE7591FD7CD6
:100D430000ECC39950158C08750900EA2508F58253
:100D5300EB3509F583E0F5D90C80E67F0202036EDB
:100D6300C082C083E9C394014013E5D98A828B838F
:100D7300F08A828B83A3AA82AB831980E7D083D0C6
:100D83008202010B75E1E9E591A2E150FA7591FD4B
:100D9300790002010B75E1EC75E1E302010B75E1EA
:100DA300EF75E1EC02010BC082C0839061A3E0C246
:100DB300E6F0539AFED083D08202010BC082C08337
:100DC3009061A3E0D2E6F0439A01D083D08202017E
:100DD3000BC082C083A2AFE492E0FCC2AF9001FDDE
:100DE300EAF0A3EBF0ECA2E092AFD083D082020151
:100DF3000BC082C083906193E0542270F8D083D0FB
:100E03008202010B02010BC292C280C2F989F9A2CC
:100E1300F950FC00000000D29202010BC292D28072
:100E2300C2F989F9A2F950FC00000000D292020134
:100E33000BC082C08353F4FBD29243FE0453F3FEF0
:100E4300D28043FD017915120213790F12022B7917
:100E53000E1202137925120213791C1202137A154A
:100E63007B001201B31202251202317929120213F7
:100E7300D083D08202010B74F71203087980120227
:100E8300137E00EEC39430500879201202190E80AD
:100E9300F27F0102036E74F7120308E9FE79501220
:100EA3000213EEF91202197F0102036E74F71203A3
:100EB3000879C01202137E00EEC3944050087900F3
:100EC3001202190E80F27F0102036EC082C0837981
:100ED3000112024F790212024F790312024F790471
:100EE30012024F7A327B001201B380E3C082C083C7
:100EF3001201A743FE01C29043FE02C29143FE10BA
:100F0300C29443FD02C28153F3FD53FDFD438F029F
:100F130053F5FE53FFFE43F70143F340120243121E
:100F2300021F12018FD083D08202010B43F10243CF
:100F3300F48043F44043F420E59EA2E0E492E024ED
:100F43000FFA7B5375FB8075F80074204AF5FC8B10
:100F5300FA02010BC082C083E912046C01037F0F04
:100F63006B0F6F0F730F770FD2908010D291800C9D
:100F7300D2948008D2817401900229F0D083D08268
:100F830002010BC082C083E912046C0103BB0F9AF8
:100F93000FA10FA80FAF0F639001E590801A639024
:100FA30002E5908013639010E590800C638002E566
:100FB30080900229E06401F0D083D08202010BE922
:100FC300FBEBC39A5004EBF98002EAF902010B121E
:100FD300023D12025B1201B9E96401700312023788
:100FE30079011202497A5E7B011201B31202611286
:100FF3000267900302E064007004A3E0640060F2FF
:10100300740190022AF012018979697C2A7D027A9F
:10101300207B2512016BE9700A9003067401F0A38B
:101023007400F0120183740290022AF0120189798C
:10103300697C2A7D027A207B2512016BE9705112AB
:101043000183120171E960FA7C007D0079697A936A
:101053007B02120177E9C394014035900293E06467
:1010630043702D78007900C3E89469E99400502017
:101073005386FDE82493F582E93402F583E0F5C154
:10108300E586A2E150FAE82401F8E93400F980D7B3
:10109300120183900304E064007004A3E064006021
:1010A3001A79697C2A7D027A207B2512016BE9700B
:1010B3000A9003047400F0A37400F0120171E96054
:1010C300D2900308E0FCA3E0FD79697A937B0212D6
:1010D3000177E9C3940140BB12017DE990030AF053
:1010E30090030AE09002FBF0900293E0644470A343
:1010F30078007900C3E89469E9940050965386FD1B
:10110300E82493F582E93402F583E0F5C1E586A28C
:10111300E150FAE82401F8E93400F980D7C082C02D
:10112300839002FE7407F0A37420F07419900300F7
:10113300F07401900301F09002FC74EFF0A374BE0D
:10114300F07AFC7B02120165E96401700312023735
:10115300D083D08202010B53F1FE43F30CE5F3433A
:10116300FD0853FDFB43868043C406E5C453C4A670
:10117300E5C475C2D843C509E5C553C5E9E5C5024C
:10118300010BC28B438640D2AAD2AF02010B74F685
:10119300120308740A1202FCE0FEA3E0FFEAF8EB74
:1011A300F980188C828D83E088828983F0A3A882DA
:1011B300A9838C828D83A3AC82AD838E088F09743F
:1011C300FF25081E74FF3509FFE5087002E5097065
:0611D300D27F0202036E50
:04000005000000E314
:00000001FF
